:100000000C9434000C9451000C9451000C94510049
:100010000C9451000C9451000C9451000C9451001C
:100020000C9451000C9451000C9451000C9451000C
:100030000C9451000C9451000C948E020C945100BD
:100040000C9451000C9451000C9451000C945100EC
:100050000C9451000C9451000C9451000C945100DC
:100060000C9451000C94510011241FBECFEFD8E026
:10007000DEBFCDBF11E0A0E0B1E0EEEDF6E002C0E2
:1000800005900D92A031B107D9F711E0A0E1B1E0E0
:1000900001C01D92A233B107E1F70E9453000C94F6
:1000A0006D030C9400000F931F93CF93DF9380E8B0
:1000B00080936100109261000E947C020E943902CC
:1000C000789410E000E0C0EDD7E001C010E00E949D
:1000D0004C02582F002379F4E12FF0E0E050FF4F5D
:1000E0008081581799F71F5F1E3089F78FEF0E94A4
:1000F000530201E0ECCF8F3FC9F0803831F48FEF2D
:100100000E94530210E000E0E2CF482F429546954E
:1001100046954170282F229526952170382F3F70E3
:10012000842F90E0820F911D029711F48FEF9EC1F2
:10013000413009F09EC0952F92959170373009F4A7
:100140005EC0383098F4333009F43FC0343030F4B6
:10015000313061F19170323090F522C0353009F4C0
:1001600043C09170363008F046C036C03B3009F4C9
:100170005EC03C3040F4393009F44CC091703A30E4
:1001800008F04FC041C03D3009F45EC03D3008F476
:1001900057C03E3009F45DC03F3009F068C05FC011
:1001A000529A990F990F8BB18B7F06C0539A990F72
:1001B000990F990F8BB1877F892B8BB958C0549AAF
:1001C0009295907F8BB18F7EF7CF559A9295990F2C
:1001D000907E8BB18F7DF0CF569A9295990F990FA3
:1001E000907C8BB18F7BE8CF579A979599279795FD
:1001F0008BB18F77E1CF209A85B18E7F1EC0219A77
:10020000990F85B18D7F19C0229A990F990F85B1E9
:100210008B7F13C0239A990F990F990F85B1877F10
:100220000CC0249A9295907F85B18F7E06C0259A46
:100230009295990F907E85B18F7D892B85B917C0D6
:10024000389A88B18E7F11C0399A990F88B18D7F05
:100250000CC03A9A990F990F88B18B7F06C03B9AD0
:10026000990F990F990F88B1877F892B88B9852FAE
:10027000FDC0373009F462C03830A8F4333009F4D7
:1002800041C0343038F4313079F1922F91703230EE
:1002900090F524C0353009F444C0922F9170363067
:1002A00008F048C036C03B3009F461C03C3048F427
:1002B000393009F44FC0922F91703A3008F051C094
:1002C00042C03D3009F460C03D3008F459C03E30B2
:1002D00009F45FC03F3009F06AC061C05298990FBD
:1002E000990F8BB18B7F0CC05398220F220F220FD6
:1002F0008BB1877F1CC054989295907F8BB18F7E75
:10030000892B16C055982295220F207E8BB18F7DA8
:100310000EC056989295990F990F907C8BB18F7B58
:10032000EFCF57982795222727958BB18F77822B70
:100330008BB93DC0209885B18E7F0AC02198220FCD
:1003400085B18D7F1AC02298990F990F85B18B7F47
:10035000892B14C02398220F220F220F85B1877F8B
:100360000CC024989295907F85B18F7EF1CF25980F
:100370002295220F207E85B18F7D822B85B917C0F3
:10038000389888B18E7F11C03998220F88B18D7F3F
:100390000CC03A98220F220F88B18B7F06C03B9881
:1003A000220F220F220F88B1877F822B88B9CE01BE
:1003B0000197F1F73730C1F1383070F4333029F15B
:1003C000343028F43130E9F03230E8F418C03530F8
:1003D00021F1363038F51BC03B3081F13C3028F438
:1003E000393031F13A3030F521C03D3071F13D30D6
:1003F00050F13E3069F13F3079F190E032C099B16F
:1004000028C099B12AC099B116C099B118C099B144
:10041000929596959695937023C099B1991F9927B7
:10042000991F1FC093B11CC093B110C093B111C0EC
:1004300093B113C093B192959F7012C093B19295EE
:10044000969597700DC096B10BC096B1969508C061
:1004500096B19695969504C096B196959695969573
:100460009170852F8F7E913009F480610E94530234
:100470002ECE519A50981092C50089E18093C40005
:10048000E1ECF0E0808188608083808180618083FE
:1004900086E08093C20008958091C00087FFFCCF62
:1004A0008091C6000895982F8091C00085FFFCCFF1
:1004B0009093C6000895FC0107C08091C00085FF9D
:1004C000FCCF9093C600319690819923B1F708959F
:1004D000E2E1F1E09E2F2F2F8091C00087FFFCCF3B
:1004E0008091C60081938A30A9F7909310012093E0
:1004F000110182E191E0089580910E0187FF0DC006
:1005000010920E012FB7F89492E094BD83E085BD60
:1005100084E887BD90936E002FBF08951F920F92BD
:100520000FB60F9211242F933F934F935F936F93C6
:100530007F938F939F93AF93BF93CF93DF93EF936B
:10054000FF9384E887BD80912E0190912F01A091A7
:100550003001B09131010196A11DB11D80932E0192
:1005600090932F01A0933001B0933101C0E0D0E00F
:1005700025C014968D919C911597019715969C9383
:100580008E93149714968D919C911597892BA9F4AD
:10059000EE0FFF1FE25EFE4F8081918115969C93C6
:1005A0008E931497ED91FC9160912E0170912F0123
:1005B000809130019091310109952196FE01EE0F55
:1005C000FF1FEC0FFD1FDF01AA0FBB1FA45EBE4F74
:1005D0008D919C911197892B19F0C330D10549F663
:1005E000FF91EF91DF91CF91BF91AF919F918F914B
:1005F0007F916F915F914F913F912F910F900FBE1F
:100600000F901F9018950F931F93CF93DF93EC01DA
:100610008B010E947C02209719F130910E0133303A
:10062000FCF42FB7F894832F992787FD9095FC0150
:10063000EE0FFF1FE80FF91FEE0FFF1FDF01A45E93
:10064000BE4F1196DC93CE93E25EFE4F1183008382
:1006500015961C930E9314973F5F30930E012FBF96
:10066000DF91CF911F910F9108958FB7F89420914A
:100670002E0130912F0140913001509131018FBFF7
:10068000B901CA010895EF92FF920F931F937B0166
:100690008C018FB7F89440912E0150912F016091F9
:1006A0003001709131018FBF2FB7F89480912E01E6
:1006B00090912F01A0913001B09131012FBF841B87
:1006C000950BA60BB70B8E159F05A007B10760F31E
:0E06D0001F910F91FF90EF900895F894FFCFC7
:1006DE004F5044494447425045494E495400FF004B
:00000001FF
