:100000000C9434000C9451000C9451000C94510049
:100010000C9451000C9451000C9451000C9451001C
:100020000C9451000C9451000C9451000C9451000C
:100030000C9451000C9451000C9462020C945100E9
:100040000C9451000C9451000C9451000C945100EC
:100050000C9451000C9451000C9451000C945100DC
:100060000C9451000C94510011241FBECFEFD8E026
:10007000DEBFCDBF11E0A0E0B1E0E6E8F6E002C0EF
:1000800005900D92A230B107D9F711E0A2E0B1E0DE
:1000900001C01D92A432B107E1F70E9453000C94F5
:1000A00041030C940000CF93DF9380E880936100BC
:1000B000109261000E9450020E940D027894C0EDDF
:1000C000D7E00E942002582F8F3F89F0482F429599
:1000D000469546954170282F229526952170382FF8
:1000E0003F70842F90E0820F911D029711F48FEFE3
:1000F00091C1413009F09AC0952F92959170373097
:1001000009F45AC0383080F43330E1F1343028F447
:10011000313049F1323080F520C0353009F441C02A
:10012000363008F045C035C03B3009F45DC03C3086
:1001300038F4393009F44BC03A3008F04FC041C0B0
:100140003D3009F45EC03D3008F457C03E3009F43C
:100150005DC03F3009F068C05FC0529A990F990F97
:100160008BB18B7F06C0539A990F990F990F8BB162
:10017000877F892B8BB958C0549A9295907F8BB109
:100180008F7EF7CF559A9295990F907E8BB18F7D88
:10019000F0CF569A9295990F990F907C8BB18F7BE7
:1001A000E8CF579A9795992797958BB18F77E1CF9D
:1001B000209A85B18E7F1EC0219A990F85B18D7FBF
:1001C00019C0229A990F990F85B18B7F13C0239A7A
:1001D000990F990F990F85B1877F0CC0249A92953A
:1001E000907F85B18F7E06C0259A9295990F907E5B
:1001F00085B18F7D892B85B917C0389A88B18E7FDC
:1002000011C0399A990F88B18D7F0CC03A9A990F15
:10021000990F88B18B7F06C03B9A990F990F990F60
:1002200088B1877F892B88B9852FF4C0373009F4CE
:100230005AC0383080F43330D1F1343028F43130C2
:1002400049F1323070F520C0353009F43FC0363006
:1002500008F045C033C03B3009F45DC03C3038F491
:10026000393009F44BC03A3008F04FC041C03D303E
:1002700009F45EC03D3008F457C03E3009F45DC05B
:100280003F3009F068C05FC05298220F220F8BB137
:100290008B7F22C05398220F220F220F8BB1877FB2
:1002A0001BC054982295207F8BB18F7E15C0559826
:1002B0002295220F207E8BB18F7D0EC056982295FD
:1002C000220F220F207C8BB18F7B06C05798279579
:1002D000222727958BB18F77822B8BB93CC0209832
:1002E00085B18E7F1EC02198220F85B18D7F19C0E8
:1002F0002298220F220F85B18B7F13C02398220FE3
:10030000220F220F85B1877F0CC024982295207F71
:1003100085B18F7E06C025982295220F207E85B15B
:100320008F7D822B85B917C0389888B18E7F11C018
:100330003998220F88B18D7F0CC03A98220F220F76
:1003400088B18B7F06C03B98220F220F220F88B105
:10035000877F822B88B9CE010197F1F73730C1F141
:10036000383070F4333029F1343028F43130E9F08A
:100370003230E8F418C0353021F1363038F51BC082
:100380003B3081F13C3028F4393031F13A3030F5EE
:1003900021C03D3071F13D3050F13E3069F13F30C8
:1003A00079F190E032C099B128C099B12AC099B1D1
:1003B00016C099B118C099B192959695969593707B
:1003C00023C099B1991F9927991F1FC093B11CC0D1
:1003D00093B110C093B111C093B113C093B1929572
:1003E0009F7012C093B19295969597700DC096B17B
:1003F0000BC096B1969508C096B19695969504C097
:1004000096B19695969596959170852F8F7E9130A1
:1004100009F480610E94270254CE519A509810929C
:10042000C50089E18093C400E1ECF0E08081886040
:10043000808380818061808386E08093C2000895FC
:100440008091C00087FFFCCF8091C6000895982F4F
:100450008091C00085FFFCCF9093C6000895FC01F9
:1004600007C08091C00085FFFCCF9093C6003196F5
:1004700090819923B1F70895E4E0F1E09E2F2F2FAA
:100480008091C00087FFFCCF8091C60081938A30A5
:10049000A9F7909302012093030184E091E008956D
:1004A0008091000187FF0DC0109200012FB7F894D2
:1004B00092E094BD83E085BD84E887BD90936E0093
:1004C0002FBF08951F920F920FB60F9211242F93F2
:1004D0003F934F935F936F937F938F939F93AF93CC
:1004E000BF93CF93DF93EF93FF9384E887BD809111
:1004F000200190912101A0912201B0912301019648
:10050000A11DB11D8093200190932101A093220190
:10051000B0932301C0E0D0E025C014968D919C914A
:100520001597019715969C938E93149714968D9119
:100530009C911597892BA9F4EE0FFF1FE05FFE4FEA
:100540008081918115969C938E931497ED91FC91E7
:1005500060912001709121018091220190912301ED
:1005600009952196FE01EE0FFF1FEC0FFD1FDF0125
:10057000AA0FBB1FA25FBE4F8D919C911197892B33
:1005800019F0C330D10549F6FF91EF91DF91CF917A
:10059000BF91AF919F918F917F916F915F914F919B
:1005A0003F912F910F900FBE0F901F9018950F93B2
:1005B0001F93CF93DF93EC018B010E945002209791
:1005C00019F1309100013330FCF42FB7F894832FE8
:1005D000992787FD9095FC01EE0FFF1FE80FF91F8B
:1005E000EE0FFF1FDF01A25FBE4F1196DC93CE938B
:1005F000E05FFE4F1183008315961C930E931497B2
:100600003F5F309300012FBFDF91CF911F910F917A
:1006100008958FB7F89420912001309121014091E5
:100620002201509123018FBFB901CA010895EF92B1
:10063000FF920F931F937B018C018FB7F894409129
:1006400020015091210160912201709123018FBFFF
:100650002FB7F8948091200190912101A09122015F
:10066000B09123012FBF841B950BA60BB70B8E15E2
:100670009F05A007B10760F31F910F91FF90EF90C6
:060680000895F894FFCF7D
:02068600FF0073
:00000001FF
